{
  "contractName": "LANDToken",
  "address": "0x2b360c57c7ac2cd88ed15cd9630a2c2328cb3cbd",
  "abi": [
    {
      "constant": true,
      "inputs": [],
      "name": "name",
      "outputs": [
        {
          "name": "",
          "type": "string"
        }
      ],
      "payable": false,
      "stateMutability": "view",
      "type": "function"
    },
    {
      "constant": false,
      "inputs": [
        {
          "name": "beneficiary",
          "type": "address"
        },
        {
          "name": "tokenId",
          "type": "uint256"
        }
      ],
      "name": "approve",
      "outputs": [],
      "payable": false,
      "stateMutability": "nonpayable",
      "type": "function"
    },
    {
      "constant": false,
      "inputs": [
        {
          "name": "x",
          "type": "uint256"
        },
        {
          "name": "y",
          "type": "uint256"
        }
      ],
      "name": "takeLand",
      "outputs": [],
      "payable": false,
      "stateMutability": "nonpayable",
      "type": "function"
    },
    {
      "constant": true,
      "inputs": [
        {
          "name": "owner",
          "type": "address"
        }
      ],
      "name": "getAllTokens",
      "outputs": [
        {
          "name": "",
          "type": "uint256[]"
        }
      ],
      "payable": false,
      "stateMutability": "view",
      "type": "function"
    },
    {
      "constant": true,
      "inputs": [],
      "name": "totalSupply",
      "outputs": [
        {
          "name": "",
          "type": "uint256"
        }
      ],
      "payable": false,
      "stateMutability": "view",
      "type": "function"
    },
    {
      "constant": true,
      "inputs": [
        {
          "name": "",
          "type": "uint256"
        }
      ],
      "name": "tokenOwner",
      "outputs": [
        {
          "name": "",
          "type": "address"
        }
      ],
      "payable": false,
      "stateMutability": "view",
      "type": "function"
    },
    {
      "constant": true,
      "inputs": [
        {
          "name": "x",
          "type": "uint256"
        },
        {
          "name": "y",
          "type": "uint256"
        }
      ],
      "name": "buildTokenId",
      "outputs": [
        {
          "name": "",
          "type": "uint256"
        }
      ],
      "payable": false,
      "stateMutability": "view",
      "type": "function"
    },
    {
      "constant": false,
      "inputs": [
        {
          "name": "tokenId",
          "type": "uint256"
        },
        {
          "name": "_metadata",
          "type": "string"
        }
      ],
      "name": "updateTokenMetadata",
      "outputs": [],
      "payable": false,
      "stateMutability": "nonpayable",
      "type": "function"
    },
    {
      "constant": true,
      "inputs": [
        {
          "name": "owner",
          "type": "address"
        },
        {
          "name": "index",
          "type": "uint256"
        }
      ],
      "name": "tokenOfOwnerByIndex",
      "outputs": [
        {
          "name": "",
          "type": "uint256"
        }
      ],
      "payable": false,
      "stateMutability": "view",
      "type": "function"
    },
    {
      "constant": true,
      "inputs": [
        {
          "name": "",
          "type": "uint256"
        }
      ],
      "name": "latestPing",
      "outputs": [
        {
          "name": "",
          "type": "uint256"
        }
      ],
      "payable": false,
      "stateMutability": "view",
      "type": "function"
    },
    {
      "constant": false,
      "inputs": [
        {
          "name": "to",
          "type": "address"
        },
        {
          "name": "x",
          "type": "uint256"
        },
        {
          "name": "y",
          "type": "uint256"
        }
      ],
      "name": "approveLandTransfer",
      "outputs": [],
      "payable": false,
      "stateMutability": "nonpayable",
      "type": "function"
    },
    {
      "constant": true,
      "inputs": [
        {
          "name": "x",
          "type": "uint256"
        },
        {
          "name": "y",
          "type": "uint256"
        }
      ],
      "name": "ownerOfLand",
      "outputs": [
        {
          "name": "",
          "type": "address"
        }
      ],
      "payable": false,
      "stateMutability": "view",
      "type": "function"
    },
    {
      "constant": true,
      "inputs": [
        {
          "name": "x",
          "type": "uint256"
        },
        {
          "name": "y",
          "type": "uint256"
        }
      ],
      "name": "exists",
      "outputs": [
        {
          "name": "",
          "type": "bool"
        }
      ],
      "payable": false,
      "stateMutability": "view",
      "type": "function"
    },
    {
      "constant": false,
      "inputs": [
        {
          "name": "x",
          "type": "uint256"
        },
        {
          "name": "y",
          "type": "uint256"
        },
        {
          "name": "_metadata",
          "type": "string"
        }
      ],
      "name": "updateLandMetadata",
      "outputs": [],
      "payable": false,
      "stateMutability": "nonpayable",
      "type": "function"
    },
    {
      "constant": true,
      "inputs": [
        {
          "name": "tokenId",
          "type": "uint256"
        }
      ],
      "name": "ownerOf",
      "outputs": [
        {
          "name": "",
          "type": "address"
        }
      ],
      "payable": false,
      "stateMutability": "view",
      "type": "function"
    },
    {
      "constant": true,
      "inputs": [
        {
          "name": "",
          "type": "uint256"
        }
      ],
      "name": "tokenMetadata",
      "outputs": [
        {
          "name": "",
          "type": "string"
        }
      ],
      "payable": false,
      "stateMutability": "view",
      "type": "function"
    },
    {
      "constant": true,
      "inputs": [
        {
          "name": "owner",
          "type": "address"
        }
      ],
      "name": "balanceOf",
      "outputs": [
        {
          "name": "",
          "type": "uint256"
        }
      ],
      "payable": false,
      "stateMutability": "view",
      "type": "function"
    },
    {
      "constant": false,
      "inputs": [
        {
          "name": "tokenId",
          "type": "uint256"
        }
      ],
      "name": "ping",
      "outputs": [],
      "payable": false,
      "stateMutability": "nonpayable",
      "type": "function"
    },
    {
      "constant": true,
      "inputs": [
        {
          "name": "x",
          "type": "uint256"
        },
        {
          "name": "y",
          "type": "uint256"
        }
      ],
      "name": "landMetadata",
      "outputs": [
        {
          "name": "",
          "type": "string"
        }
      ],
      "payable": false,
      "stateMutability": "view",
      "type": "function"
    },
    {
      "constant": true,
      "inputs": [],
      "name": "totalTokens",
      "outputs": [
        {
          "name": "",
          "type": "uint256"
        }
      ],
      "payable": false,
      "stateMutability": "view",
      "type": "function"
    },
    {
      "constant": true,
      "inputs": [],
      "name": "owner",
      "outputs": [
        {
          "name": "",
          "type": "address"
        }
      ],
      "payable": false,
      "stateMutability": "view",
      "type": "function"
    },
    {
      "constant": true,
      "inputs": [],
      "name": "symbol",
      "outputs": [
        {
          "name": "",
          "type": "string"
        }
      ],
      "payable": false,
      "stateMutability": "view",
      "type": "function"
    },
    {
      "constant": false,
      "inputs": [
        {
          "name": "x",
          "type": "uint256[]"
        },
        {
          "name": "y",
          "type": "uint256[]"
        },
        {
          "name": "_metadata",
          "type": "string"
        }
      ],
      "name": "updateManyLandMetadata",
      "outputs": [],
      "payable": false,
      "stateMutability": "nonpayable",
      "type": "function"
    },
    {
      "constant": false,
      "inputs": [
        {
          "name": "to",
          "type": "address"
        },
        {
          "name": "x",
          "type": "uint256"
        },
        {
          "name": "y",
          "type": "uint256"
        }
      ],
      "name": "transferLand",
      "outputs": [],
      "payable": false,
      "stateMutability": "nonpayable",
      "type": "function"
    },
    {
      "constant": true,
      "inputs": [
        {
          "name": "",
          "type": "uint256"
        }
      ],
      "name": "allowedTransfer",
      "outputs": [
        {
          "name": "",
          "type": "address"
        }
      ],
      "payable": false,
      "stateMutability": "view",
      "type": "function"
    },
    {
      "constant": false,
      "inputs": [
        {
          "name": "to",
          "type": "address"
        },
        {
          "name": "tokenId",
          "type": "uint256"
        }
      ],
      "name": "transfer",
      "outputs": [],
      "payable": false,
      "stateMutability": "nonpayable",
      "type": "function"
    },
    {
      "constant": false,
      "inputs": [
        {
          "name": "tokenId",
          "type": "uint256"
        }
      ],
      "name": "takeOwnership",
      "outputs": [],
      "payable": false,
      "stateMutability": "nonpayable",
      "type": "function"
    },
    {
      "constant": false,
      "inputs": [
        {
          "name": "beneficiary",
          "type": "address"
        },
        {
          "name": "tokenId",
          "type": "uint256"
        }
      ],
      "name": "claimForgottenParcel",
      "outputs": [],
      "payable": false,
      "stateMutability": "nonpayable",
      "type": "function"
    },
    {
      "constant": false,
      "inputs": [
        {
          "name": "beneficiary",
          "type": "address"
        },
        {
          "name": "tokenId",
          "type": "uint256"
        },
        {
          "name": "_metadata",
          "type": "string"
        }
      ],
      "name": "assignNewParcel",
      "outputs": [],
      "payable": false,
      "stateMutability": "nonpayable",
      "type": "function"
    },
    {
      "constant": true,
      "inputs": [
        {
          "name": "",
          "type": "address"
        },
        {
          "name": "",
          "type": "uint256"
        }
      ],
      "name": "ownedTokens",
      "outputs": [
        {
          "name": "",
          "type": "uint256"
        }
      ],
      "payable": false,
      "stateMutability": "view",
      "type": "function"
    },
    {
      "constant": true,
      "inputs": [
        {
          "name": "tokenId",
          "type": "uint256"
        }
      ],
      "name": "metadata",
      "outputs": [
        {
          "name": "",
          "type": "string"
        }
      ],
      "payable": false,
      "stateMutability": "view",
      "type": "function"
    },
    {
      "constant": false,
      "inputs": [
        {
          "name": "newOwner",
          "type": "address"
        }
      ],
      "name": "transferOwnership",
      "outputs": [],
      "payable": false,
      "stateMutability": "nonpayable",
      "type": "function"
    },
    {
      "anonymous": false,
      "inputs": [
        {
          "indexed": false,
          "name": "tokenId",
          "type": "uint256"
        }
      ],
      "name": "TokenPing",
      "type": "event"
    },
    {
      "anonymous": false,
      "inputs": [
        {
          "indexed": false,
          "name": "tokenId",
          "type": "uint256"
        },
        {
          "indexed": false,
          "name": "owner",
          "type": "address"
        },
        {
          "indexed": false,
          "name": "metadata",
          "type": "string"
        }
      ],
      "name": "TokenCreated",
      "type": "event"
    },
    {
      "anonymous": false,
      "inputs": [
        {
          "indexed": false,
          "name": "tokenId",
          "type": "uint256"
        },
        {
          "indexed": false,
          "name": "owner",
          "type": "address"
        }
      ],
      "name": "TokenDestroyed",
      "type": "event"
    },
    {
      "anonymous": false,
      "inputs": [
        {
          "indexed": false,
          "name": "tokenId",
          "type": "uint256"
        },
        {
          "indexed": false,
          "name": "from",
          "type": "address"
        },
        {
          "indexed": false,
          "name": "to",
          "type": "address"
        }
      ],
      "name": "TokenTransferred",
      "type": "event"
    },
    {
      "anonymous": false,
      "inputs": [
        {
          "indexed": false,
          "name": "tokenId",
          "type": "uint256"
        },
        {
          "indexed": false,
          "name": "beneficiary",
          "type": "address"
        }
      ],
      "name": "TokenTransferAllowed",
      "type": "event"
    },
    {
      "anonymous": false,
      "inputs": [
        {
          "indexed": false,
          "name": "tokenId",
          "type": "uint256"
        },
        {
          "indexed": false,
          "name": "beneficiary",
          "type": "address"
        }
      ],
      "name": "TokenTransferDisallowed",
      "type": "event"
    },
    {
      "anonymous": false,
      "inputs": [
        {
          "indexed": false,
          "name": "tokenId",
          "type": "uint256"
        },
        {
          "indexed": false,
          "name": "owner",
          "type": "address"
        },
        {
          "indexed": false,
          "name": "data",
          "type": "string"
        }
      ],
      "name": "TokenMetadataUpdated",
      "type": "event"
    },
    {
      "anonymous": false,
      "inputs": [
        {
          "indexed": true,
          "name": "previousOwner",
          "type": "address"
        },
        {
          "indexed": true,
          "name": "newOwner",
          "type": "address"
        }
      ],
      "name": "OwnershipTransferred",
      "type": "event"
    }
  ],
  "bytecode": "0x60606040526040805190810160405280601281526020017f446563656e7472616c616e6420576f726c6400000000000000000000000000008152506008908051906020019062000051929190620000e6565b506040805190810160405280600481526020017f4c414e4400000000000000000000000000000000000000000000000000000000815250600990805190602001906200009f929190620000e6565b50336000806101000a81548173ffffffffffffffffffffffffffffffffffffffff021916908373ffffffffffffffffffffffffffffffffffffffff16021790555062000195565b828054600181600116156101000203166002900490600052602060002090601f016020900481019282601f106200012957805160ff19168380011785556200015a565b828001600101855582156200015a579182015b82811115620001595782518255916020019190600101906200013c565b5b5090506200016991906200016d565b5090565b6200019291905b808211156200018e57600081600090555060010162000174565b5090565b90565b61277680620001a56000396000f300606060405260043610610196576000357c0100000000000000000000000000000000000000000000000000000000900463ffffffff16806306fdde031461019b578063095ea7b3146102295780630b09d3671461026b578063178b6de61461029757806318160ddd146103255780631caaa4871461034e57806326b47687146103b15780632cb2f52e146103f15780632f745c591461045757806334bc98b7146104ad5780633fe4685b146104e457806345b784371461052f578063579394f21461059b57806357b748b2146105df5780636352211e1461064e5780636914db60146106b157806370a082311461074d578063773acdef1461079a57806378af299e146107bd5780637e1c0c09146108625780638da5cb5b1461088b57806395d89b41146108e057806399e5aff71461096e578063a447104214610a4b578063a6832d5314610a96578063a9059cbb14610af9578063b2e6ceeb14610b3b578063b452a3d914610b5e578063d321a9cd14610ba0578063e149f03614610c25578063e3684e3914610c7b578063f2fde38b14610d17575b600080fd5b34156101a657600080fd5b6101ae610d50565b6040518080602001828103825283818151815260200191508051906020019080838360005b838110156101ee5780820151818401526020810190506101d3565b50505050905090810190601f16801561021b5780820380516001836020036101000a031916815260200191505b509250505060405180910390f35b341561023457600080fd5b610269600480803573ffffffffffffffffffffffffffffffffffffffff16906020019091908035906020019091905050610dee565b005b341561027657600080fd5b6102956004808035906020019091908035906020019091905050611061565b005b34156102a257600080fd5b6102ce600480803573ffffffffffffffffffffffffffffffffffffffff16906020019091905050611077565b6040518080602001828103825283818151815260200191508051906020019060200280838360005b838110156103115780820151818401526020810190506102f6565b505050509050019250505060405180910390f35b341561033057600080fd5b610338611187565b6040518082815260200191505060405180910390f35b341561035957600080fd5b61036f6004808035906020019091905050611191565b604051808273ffffffffffffffffffffffffffffffffffffffff1673ffffffffffffffffffffffffffffffffffffffff16815260200191505060405180910390f35b34156103bc57600080fd5b6103db60048080359060200190919080359060200190919050506111c4565b6040518082815260200191505060405180910390f35b34156103fc57600080fd5b610455600480803590602001909190803590602001908201803590602001908080601f01602080910402602001604051908101604052809392919081815260200183838082843782019150505050505091905050611218565b005b341561046257600080fd5b610497600480803573ffffffffffffffffffffffffffffffffffffffff16906020019091908035906020019091905050611389565b6040518082815260200191505060405180910390f35b34156104b857600080fd5b6104ce600480803590602001909190505061140d565b6040518082815260200191505060405180910390f35b34156104ef57600080fd5b61052d600480803573ffffffffffffffffffffffffffffffffffffffff16906020019091908035906020019091908035906020019091905050611425565b005b341561053a57600080fd5b610559600480803590602001909190803590602001909190505061143d565b604051808273ffffffffffffffffffffffffffffffffffffffff1673ffffffffffffffffffffffffffffffffffffffff16815260200191505060405180910390f35b34156105a657600080fd5b6105c56004808035906020019091908035906020019091905050611484565b604051808215151515815260200191505060405180910390f35b34156105ea57600080fd5b61064c600480803590602001909190803590602001909190803590602001908201803590602001908080601f016020809104026020016040519081016040528093929190818152602001838380828437820191505050505050919050506114b1565b005b341561065957600080fd5b61066f60048080359060200190919050506114c9565b604051808273ffffffffffffffffffffffffffffffffffffffff1673ffffffffffffffffffffffffffffffffffffffff16815260200191505060405180910390f35b34156106bc57600080fd5b6106d26004808035906020019091905050611506565b6040518080602001828103825283818151815260200191508051906020019080838360005b838110156107125780820151818401526020810190506106f7565b50505050905090810190601f16801561073f5780820380516001836020036101000a031916815260200191505b509250505060405180910390f35b341561075857600080fd5b610784600480803573ffffffffffffffffffffffffffffffffffffffff169060200190919050506115b6565b6040518082815260200191505060405180910390f35b34156107a557600080fd5b6107bb60048080359060200190919050506115ff565b005b34156107c857600080fd5b6107e760048080359060200190919080359060200190919050506116be565b6040518080602001828103825283818151815260200191508051906020019080838360005b8381101561082757808201518184015260208101905061080c565b50505050905090810190601f1680156108545780820380516001836020036101000a031916815260200191505b509250505060405180910390f35b341561086d57600080fd5b610875611783565b6040518082815260200191505060405180910390f35b341561089657600080fd5b61089e611789565b604051808273ffffffffffffffffffffffffffffffffffffffff1673ffffffffffffffffffffffffffffffffffffffff16815260200191505060405180910390f35b34156108eb57600080fd5b6108f36117ae565b6040518080602001828103825283818151815260200191508051906020019080838360005b83811015610933578082015181840152602081019050610918565b50505050905090810190601f1680156109605780820380516001836020036101000a031916815260200191505b509250505060405180910390f35b341561097957600080fd5b610a496004808035906020019082018035906020019080806020026020016040519081016040528093929190818152602001838360200280828437820191505050505050919080359060200190820180359060200190808060200260200160405190810160405280939291908181526020018383602002808284378201915050505050509190803590602001908201803590602001908080601f0160208091040260200160405190810160405280939291908181526020018383808284378201915050505050509190505061184c565b005b3415610a5657600080fd5b610a94600480803573ffffffffffffffffffffffffffffffffffffffff169060200190919080359060200190919080359060200190919050506118af565b005b3415610aa157600080fd5b610ab760048080359060200190919050506118c7565b604051808273ffffffffffffffffffffffffffffffffffffffff1673ffffffffffffffffffffffffffffffffffffffff16815260200191505060405180910390f35b3415610b0457600080fd5b610b39600480803573ffffffffffffffffffffffffffffffffffffffff169060200190919080359060200190919050506118fa565b005b3415610b4657600080fd5b610b5c6004808035906020019091905050611a12565b005b3415610b6957600080fd5b610b9e600480803573ffffffffffffffffffffffffffffffffffffffff16906020019091908035906020019091905050611ac0565b005b3415610bab57600080fd5b610c23600480803573ffffffffffffffffffffffffffffffffffffffff1690602001909190803590602001909190803590602001908201803590602001908080601f01602080910402602001604051908101604052809392919081815260200183838082843782019150505050505091905050611cbb565b005b3415610c3057600080fd5b610c65600480803573ffffffffffffffffffffffffffffffffffffffff16906020019091908035906020019091905050611ea7565b6040518082815260200191505060405180910390f35b3415610c8657600080fd5b610c9c6004808035906020019091905050611ed8565b6040518080602001828103825283818151815260200191508051906020019080838360005b83811015610cdc578082015181840152602081019050610cc1565b50505050905090810190601f168015610d095780820380516001836020036101000a031916815260200191505b509250505060405180910390f35b3415610d2257600080fd5b610d4e600480803573ffffffffffffffffffffffffffffffffffffffff16906020019091905050611f93565b005b60088054600181600116156101000203166002900480601f016020809104026020016040519081016040528092919081815260200182805460018160011615610100020316600290048015610de65780601f10610dbb57610100808354040283529160200191610de6565b820191906000526020600020905b815481529060010190602001808311610dc957829003601f168201915b505050505081565b6005600082815260200190815260200160002060009054906101000a900473ffffffffffffffffffffffffffffffffffffffff1673ffffffffffffffffffffffffffffffffffffffff163373ffffffffffffffffffffffffffffffffffffffff16141515610e5b57600080fd5b60006006600083815260200190815260200160002060009054906101000a900473ffffffffffffffffffffffffffffffffffffffff1673ffffffffffffffffffffffffffffffffffffffff16141515610fa05760006006600083815260200190815260200160002060006101000a81548173ffffffffffffffffffffffffffffffffffffffff021916908373ffffffffffffffffffffffffffffffffffffffff1602179055507f5fda83f688ce1ae2421ed79eb61ef457e049d83a72a2bd89346313a0dfc54f26816006600084815260200190815260200160002060009054906101000a900473ffffffffffffffffffffffffffffffffffffffff16604051808381526020018273ffffffffffffffffffffffffffffffffffffffff1673ffffffffffffffffffffffffffffffffffffffff1681526020019250505060405180910390a15b816006600083815260200190815260200160002060006101000a81548173ffffffffffffffffffffffffffffffffffffffff021916908373ffffffffffffffffffffffffffffffffffffffff1602179055507fecf68eb89f499e9341b428825bfc05230b71ac7ace55af0a79c2838d23fe1e158183604051808381526020018273ffffffffffffffffffffffffffffffffffffffff1673ffffffffffffffffffffffffffffffffffffffff1681526020019250505060405180910390a15050565b61107361106e83836111c4565b611a12565b5050565b61107f612651565b6000611089612651565b6000600360008673ffffffffffffffffffffffffffffffffffffffff1673ffffffffffffffffffffffffffffffffffffffff168152602001908152602001600020549250826040518059106110db5750595b90808252806020026020018201604052509150600090505b8281101561117c57600260008673ffffffffffffffffffffffffffffffffffffffff1673ffffffffffffffffffffffffffffffffffffffff1681526020019081526020016000208181548110151561114757fe5b906000526020600020900154828281518110151561116157fe5b906020019060200201818152505080806001019150506110f3565b819350505050919050565b6000600154905090565b60056020528060005260406000206000915054906101000a900473ffffffffffffffffffffffffffffffffffffffff1681565b6000828260405180838152602001807f7c0000000000000000000000000000000000000000000000000000000000000081525060010182815260200192505050604051809103902060019004905092915050565b6005600083815260200190815260200160002060009054906101000a900473ffffffffffffffffffffffffffffffffffffffff1673ffffffffffffffffffffffffffffffffffffffff163373ffffffffffffffffffffffffffffffffffffffff1614151561128557600080fd5b806007600084815260200190815260200160002090805190602001906112ac929190612665565b507f8a97d915a6a16365912c8a8d4bc93778fbd6ba2b39af94648834537d65774365823383604051808481526020018373ffffffffffffffffffffffffffffffffffffffff1673ffffffffffffffffffffffffffffffffffffffff16815260200180602001828103825283818151815260200191508051906020019080838360005b8381101561134957808201518184015260208101905061132e565b50505050905090810190601f1680156113765780820380516001836020036101000a031916815260200191505b5094505050505060405180910390a15050565b60008082101580156113a2575061139f836115b6565b82105b15156113ad57600080fd5b600260008473ffffffffffffffffffffffffffffffffffffffff1673ffffffffffffffffffffffffffffffffffffffff168152602001908152602001600020828154811015156113f957fe5b906000526020600020900154905092915050565b600a6020528060005260406000206000915090505481565b6114388361143384846111c4565b610dee565b505050565b60006005600061144d85856111c4565b815260200190815260200160002060009054906101000a900473ffffffffffffffffffffffffffffffffffffffff16905092915050565b600080611491848461143d565b73ffffffffffffffffffffffffffffffffffffffff161415905092915050565b6114c46114be84846111c4565b82611218565b505050565b60006005600083815260200190815260200160002060009054906101000a900473ffffffffffffffffffffffffffffffffffffffff169050919050565b60076020528060005260406000206000915090508054600181600116156101000203166002900480601f0160208091040260200160405190810160405280929190818152602001828054600181600116156101000203166002900480156115ae5780601f10611583576101008083540402835291602001916115ae565b820191906000526020600020905b81548152906001019060200180831161159157829003601f168201915b505050505081565b6000600360008373ffffffffffffffffffffffffffffffffffffffff1673ffffffffffffffffffffffffffffffffffffffff168152602001908152602001600020549050919050565b6005600082815260200190815260200160002060009054906101000a900473ffffffffffffffffffffffffffffffffffffffff1673ffffffffffffffffffffffffffffffffffffffff163373ffffffffffffffffffffffffffffffffffffffff1614151561166c57600080fd5b42600a6000838152602001908152602001600020819055507fab8d3dc14202534bc1cd467b0f8bd05a0d9d0a7939bd0ec7934b3be0f603bbc0816040518082815260200191505060405180910390a150565b6116c66126e5565b600760006116d485856111c4565b81526020019081526020016000208054600181600116156101000203166002900480601f0160208091040260200160405190810160405280929190818152602001828054600181600116156101000203166002900480156117765780601f1061174b57610100808354040283529160200191611776565b820191906000526020600020905b81548152906001019060200180831161175957829003601f168201915b5050505050905092915050565b60015481565b6000809054906101000a900473ffffffffffffffffffffffffffffffffffffffff1681565b60098054600181600116156101000203166002900480601f0160208091040260200160405190810160405280929190818152602001828054600181600116156101000203166002900480156118445780601f1061181957610100808354040283529160200191611844565b820191906000526020600020905b81548152906001019060200180831161182757829003601f168201915b505050505081565b60008090505b83518110156118a95761189c611896858381518110151561186f57fe5b90602001906020020151858481518110151561188757fe5b906020019060200201516111c4565b83611218565b8080600101915050611852565b50505050565b6118c2836118bd84846111c4565b6118fa565b505050565b60066020528060005260406000206000915054906101000a900473ffffffffffffffffffffffffffffffffffffffff1681565b3373ffffffffffffffffffffffffffffffffffffffff166005600083815260200190815260200160002060009054906101000a900473ffffffffffffffffffffffffffffffffffffffff1673ffffffffffffffffffffffffffffffffffffffff1614806119c557503373ffffffffffffffffffffffffffffffffffffffff166006600083815260200190815260200160002060009054906101000a900473ffffffffffffffffffffffffffffffffffffffff1673ffffffffffffffffffffffffffffffffffffffff16145b15156119d057600080fd5b611a0e6005600083815260200190815260200160002060009054906101000a900473ffffffffffffffffffffffffffffffffffffffff1683836120e8565b5050565b3373ffffffffffffffffffffffffffffffffffffffff166006600083815260200190815260200160002060009054906101000a900473ffffffffffffffffffffffffffffffffffffffff1673ffffffffffffffffffffffffffffffffffffffff16141515611a7f57600080fd5b611abd6005600083815260200190815260200160002060009054906101000a900473ffffffffffffffffffffffffffffffffffffffff1633836120e8565b50565b60008060009054906101000a900473ffffffffffffffffffffffffffffffffffffffff1673ffffffffffffffffffffffffffffffffffffffff163373ffffffffffffffffffffffffffffffffffffffff16141515611b1d57600080fd5b60006005600084815260200190815260200160002060009054906101000a900473ffffffffffffffffffffffffffffffffffffffff1673ffffffffffffffffffffffffffffffffffffffff1614151515611b7657600080fd5b42600a600084815260200190815260200160002054101515611b9757600080fd5b6301e13380600a6000848152602001908152602001600020544203111515611bbe57600080fd5b6005600083815260200190815260200160002060009054906101000a900473ffffffffffffffffffffffffffffffffffffffff16905042600a600084815260200190815260200160002081905550611c178184846120e8565b7fa84f763be5bb36163517fb87c7af39f875a97866fdf7806eb1b3eac837ae35ea828285604051808481526020018373ffffffffffffffffffffffffffffffffffffffff1673ffffffffffffffffffffffffffffffffffffffff1681526020018273ffffffffffffffffffffffffffffffffffffffff1673ffffffffffffffffffffffffffffffffffffffff168152602001935050505060405180910390a1505050565b6000809054906101000a900473ffffffffffffffffffffffffffffffffffffffff1673ffffffffffffffffffffffffffffffffffffffff163373ffffffffffffffffffffffffffffffffffffffff16141515611d1657600080fd5b60006005600084815260200190815260200160002060009054906101000a900473ffffffffffffffffffffffffffffffffffffffff1673ffffffffffffffffffffffffffffffffffffffff16141515611d6e57600080fd5b42600a600084815260200190815260200160002081905550611d9083836121f3565b60016000815480929190600101919050555080600760008481526020019081526020016000209080519060200190611dc9929190612665565b507f82a09cc58c9cecf0eb61d8994283ec804165931801f8b77e42dcb3b556c5c5be828483604051808481526020018373ffffffffffffffffffffffffffffffffffffffff1673ffffffffffffffffffffffffffffffffffffffff16815260200180602001828103825283818151815260200191508051906020019080838360005b83811015611e66578082015181840152602081019050611e4b565b50505050905090810190601f168015611e935780820380516001836020036101000a031916815260200191505b5094505050505060405180910390a1505050565b600260205281600052604060002081815481101515611ec257fe5b9060005260206000209001600091509150505481565b611ee06126e5565b600760008381526020019081526020016000208054600181600116156101000203166002900480601f016020809104026020016040519081016040528092919081815260200182805460018160011615610100020316600290048015611f875780601f10611f5c57610100808354040283529160200191611f87565b820191906000526020600020905b815481529060010190602001808311611f6a57829003601f168201915b50505050509050919050565b6000809054906101000a900473ffffffffffffffffffffffffffffffffffffffff1673ffffffffffffffffffffffffffffffffffffffff163373ffffffffffffffffffffffffffffffffffffffff16141515611fee57600080fd5b600073ffffffffffffffffffffffffffffffffffffffff168173ffffffffffffffffffffffffffffffffffffffff161415151561202a57600080fd5b8073ffffffffffffffffffffffffffffffffffffffff166000809054906101000a900473ffffffffffffffffffffffffffffffffffffffff1673ffffffffffffffffffffffffffffffffffffffff167f8be0079c531659141344cd1fd0a4f28419497f9722a3daafe3b4186f6b6457e060405160405180910390a3806000806101000a81548173ffffffffffffffffffffffffffffffffffffffff021916908373ffffffffffffffffffffffffffffffffffffffff16021790555050565b60006006600083815260200190815260200160002060006101000a81548173ffffffffffffffffffffffffffffffffffffffff021916908373ffffffffffffffffffffffffffffffffffffffff160217905550612145838261247f565b61214f82826121f3565b7fa84f763be5bb36163517fb87c7af39f875a97866fdf7806eb1b3eac837ae35ea818484604051808481526020018373ffffffffffffffffffffffffffffffffffffffff1673ffffffffffffffffffffffffffffffffffffffff1681526020018273ffffffffffffffffffffffffffffffffffffffff1673ffffffffffffffffffffffffffffffffffffffff168152602001935050505060405180910390a1505050565b600360008373ffffffffffffffffffffffffffffffffffffffff1673ffffffffffffffffffffffffffffffffffffffff16815260200190815260200160002054600260008473ffffffffffffffffffffffffffffffffffffffff1673ffffffffffffffffffffffffffffffffffffffff1681526020019081526020016000208054905014156122e757600260008373ffffffffffffffffffffffffffffffffffffffff1673ffffffffffffffffffffffffffffffffffffffff16815260200190815260200160002080548060010182816122cd91906126f9565b916000526020600020900160008390919091505550612383565b80600260008473ffffffffffffffffffffffffffffffffffffffff1673ffffffffffffffffffffffffffffffffffffffff168152602001908152602001600020600360008573ffffffffffffffffffffffffffffffffffffffff1673ffffffffffffffffffffffffffffffffffffffff1681526020019081526020016000205481548110151561237357fe5b9060005260206000209001819055505b816005600083815260200190815260200160002060006101000a81548173ffffffffffffffffffffffffffffffffffffffff021916908373ffffffffffffffffffffffffffffffffffffffff160217905550600360008373ffffffffffffffffffffffffffffffffffffffff1673ffffffffffffffffffffffffffffffffffffffff168152602001908152602001600020546004600083815260200190815260200160002081905550600360008373ffffffffffffffffffffffffffffffffffffffff1673ffffffffffffffffffffffffffffffffffffffff168152602001908152602001600020600081548092919060010191905055505050565b600080600080600360008773ffffffffffffffffffffffffffffffffffffffff1673ffffffffffffffffffffffffffffffffffffffff168152602001908152602001600020541115156124d157600080fd5b600360008673ffffffffffffffffffffffffffffffffffffffff1673ffffffffffffffffffffffffffffffffffffffff16815260200190815260200160002054925060046000858152602001908152602001600020549150600260008673ffffffffffffffffffffffffffffffffffffffff1673ffffffffffffffffffffffffffffffffffffffff1681526020019081526020016000206001840381548110151561257857fe5b906000526020600020900154905080600260008773ffffffffffffffffffffffffffffffffffffffff1673ffffffffffffffffffffffffffffffffffffffff168152602001908152602001600020838154811015156125d357fe5b906000526020600020900181905550816004600083815260200190815260200160002081905550600360008673ffffffffffffffffffffffffffffffffffffffff1673ffffffffffffffffffffffffffffffffffffffff16815260200190815260200160002060008154809291906001900391905055505050505050565b602060405190810160405280600081525090565b828054600181600116156101000203166002900490600052602060002090601f016020900481019282601f106126a657805160ff19168380011785556126d4565b828001600101855582156126d4579182015b828111156126d35782518255916020019190600101906126b8565b5b5090506126e19190612725565b5090565b602060405190810160405280600081525090565b8154818355818115116127205781836000526020600020918201910161271f9190612725565b5b505050565b61274791905b8082111561274357600081600090555060010161272b565b5090565b905600a165627a7a723058203088a6eab41eb6c6bb026fb1fb2a3d482aea75462d476d4cac98c067758a011f0029",
  "source": "pragma solidity ^0.4.15;\n\nimport 'zeppelin-solidity/contracts/ownership/Ownable.sol';\nimport './BasicNFT.sol';\n\ncontract LANDToken is Ownable, BasicNFT {\n\n  string public name = 'Decentraland World';\n  string public symbol = 'LAND';\n\n  mapping (uint => uint) public latestPing;\n\n  event TokenPing(uint tokenId);\n\n  function assignNewParcel(address beneficiary, uint tokenId, string _metadata) onlyOwner public {\n    require(tokenOwner[tokenId] == 0);\n\n    latestPing[tokenId] = now;\n    _addTokenTo(beneficiary, tokenId);\n    totalTokens++;\n    tokenMetadata[tokenId] = _metadata;\n\n    TokenCreated(tokenId, beneficiary, _metadata);\n  }\n\n  function ping(uint tokenId) public {\n    require(msg.sender == tokenOwner[tokenId]);\n\n    latestPing[tokenId] = now;\n\n    TokenPing(tokenId);\n  }\n\n  function buildTokenId(uint x, uint y) public constant returns (uint256) {\n    return uint256(sha3(x, '|', y));\n  }\n\n  function exists(uint x, uint y) public constant returns (bool) {\n    return ownerOfLand(x, y) != 0;\n  }\n\n  function ownerOfLand(uint x, uint y) public constant returns (address) {\n    return tokenOwner[buildTokenId(x, y)];\n  }\n\n  function transferLand(address to, uint x, uint y) public {\n    return transfer(to, buildTokenId(x, y));\n  }\n\n  function takeLand(uint x, uint y) public {\n    return takeOwnership(buildTokenId(x, y));\n  }\n\n  function approveLandTransfer(address to, uint x, uint y) public {\n    return approve(to, buildTokenId(x, y));\n  }\n\n  function landMetadata(uint x, uint y) constant public returns (string) {\n    return tokenMetadata[buildTokenId(x, y)];\n  }\n\n  function updateLandMetadata(uint x, uint y, string _metadata) public {\n    return updateTokenMetadata(buildTokenId(x, y), _metadata);\n  }\n\n  function updateManyLandMetadata(uint[] x, uint[] y, string _metadata) public {\n    for (uint i = 0; i < x.length; i++) {\n      updateTokenMetadata(buildTokenId(x[i], y[i]), _metadata);\n    }\n  }\n\n  function claimForgottenParcel(address beneficiary, uint tokenId) onlyOwner public {\n    require(tokenOwner[tokenId] != 0);\n    require(latestPing[tokenId] < now);\n    require(now - latestPing[tokenId] > 1 years);\n\n    address oldOwner = tokenOwner[tokenId];\n    latestPing[tokenId] = now;\n    _transfer(oldOwner, beneficiary, tokenId);\n\n    TokenTransferred(tokenId, oldOwner, beneficiary);\n  }\n}\n",
  "sourcePath": "/Users/michaltakac/Projects/decentraland/land/contracts/LANDToken.sol",
  "compiler": {
    "name": "solc",
    "version": "0.4.18+commit.9cf6e910.Emscripten.clang"
  },
  "schemaVersion": "1.0.1",
  "updatedAt": "2017-11-17T02:58:42.952Z"
}